{
  "_format": "hh3-artifact-1",
  "contractName": "StampNFT",
  "sourceName": "contracts/StampNFT.sol",
  "abi": [
    {
      "inputs": [],
      "stateMutability": "nonpayable",
      "type": "constructor"
    },
    {
      "inputs": [
        {
          "internalType": "address",
          "name": "sender",
          "type": "address"
        },
        {
          "internalType": "uint256",
          "name": "tokenId",
          "type": "uint256"
        },
        {
          "internalType": "address",
          "name": "owner",
          "type": "address"
        }
      ],
      "name": "ERC721IncorrectOwner",
      "type": "error"
    },
    {
      "inputs": [
        {
          "internalType": "address",
          "name": "operator",
          "type": "address"
        },
        {
          "internalType": "uint256",
          "name": "tokenId",
          "type": "uint256"
        }
      ],
      "name": "ERC721InsufficientApproval",
      "type": "error"
    },
    {
      "inputs": [
        {
          "internalType": "address",
          "name": "approver",
          "type": "address"
        }
      ],
      "name": "ERC721InvalidApprover",
      "type": "error"
    },
    {
      "inputs": [
        {
          "internalType": "address",
          "name": "operator",
          "type": "address"
        }
      ],
      "name": "ERC721InvalidOperator",
      "type": "error"
    },
    {
      "inputs": [
        {
          "internalType": "address",
          "name": "owner",
          "type": "address"
        }
      ],
      "name": "ERC721InvalidOwner",
      "type": "error"
    },
    {
      "inputs": [
        {
          "internalType": "address",
          "name": "receiver",
          "type": "address"
        }
      ],
      "name": "ERC721InvalidReceiver",
      "type": "error"
    },
    {
      "inputs": [
        {
          "internalType": "address",
          "name": "sender",
          "type": "address"
        }
      ],
      "name": "ERC721InvalidSender",
      "type": "error"
    },
    {
      "inputs": [
        {
          "internalType": "uint256",
          "name": "tokenId",
          "type": "uint256"
        }
      ],
      "name": "ERC721NonexistentToken",
      "type": "error"
    },
    {
      "inputs": [
        {
          "internalType": "address",
          "name": "owner",
          "type": "address"
        }
      ],
      "name": "OwnableInvalidOwner",
      "type": "error"
    },
    {
      "inputs": [
        {
          "internalType": "address",
          "name": "account",
          "type": "address"
        }
      ],
      "name": "OwnableUnauthorizedAccount",
      "type": "error"
    },
    {
      "anonymous": false,
      "inputs": [
        {
          "indexed": true,
          "internalType": "address",
          "name": "owner",
          "type": "address"
        },
        {
          "indexed": true,
          "internalType": "address",
          "name": "approved",
          "type": "address"
        },
        {
          "indexed": true,
          "internalType": "uint256",
          "name": "tokenId",
          "type": "uint256"
        }
      ],
      "name": "Approval",
      "type": "event"
    },
    {
      "anonymous": false,
      "inputs": [
        {
          "indexed": true,
          "internalType": "address",
          "name": "owner",
          "type": "address"
        },
        {
          "indexed": true,
          "internalType": "address",
          "name": "operator",
          "type": "address"
        },
        {
          "indexed": false,
          "internalType": "bool",
          "name": "approved",
          "type": "bool"
        }
      ],
      "name": "ApprovalForAll",
      "type": "event"
    },
    {
      "anonymous": false,
      "inputs": [
        {
          "indexed": false,
          "internalType": "uint256",
          "name": "_fromTokenId",
          "type": "uint256"
        },
        {
          "indexed": false,
          "internalType": "uint256",
          "name": "_toTokenId",
          "type": "uint256"
        }
      ],
      "name": "BatchMetadataUpdate",
      "type": "event"
    },
    {
      "anonymous": false,
      "inputs": [
        {
          "indexed": true,
          "internalType": "address",
          "name": "to",
          "type": "address"
        },
        {
          "indexed": true,
          "internalType": "uint256",
          "name": "tokenId",
          "type": "uint256"
        },
        {
          "indexed": false,
          "internalType": "string",
          "name": "tokenURI",
          "type": "string"
        }
      ],
      "name": "CompositeNFTMinted",
      "type": "event"
    },
    {
      "anonymous": false,
      "inputs": [
        {
          "indexed": false,
          "internalType": "uint256",
          "name": "_tokenId",
          "type": "uint256"
        }
      ],
      "name": "MetadataUpdate",
      "type": "event"
    },
    {
      "anonymous": false,
      "inputs": [
        {
          "indexed": true,
          "internalType": "address",
          "name": "previousOwner",
          "type": "address"
        },
        {
          "indexed": true,
          "internalType": "address",
          "name": "newOwner",
          "type": "address"
        }
      ],
      "name": "OwnershipTransferred",
      "type": "event"
    },
    {
      "anonymous": false,
      "inputs": [
        {
          "indexed": true,
          "internalType": "address",
          "name": "to",
          "type": "address"
        },
        {
          "indexed": true,
          "internalType": "uint256",
          "name": "tokenId",
          "type": "uint256"
        },
        {
          "indexed": false,
          "internalType": "string",
          "name": "tokenURI",
          "type": "string"
        }
      ],
      "name": "StampMinted",
      "type": "event"
    },
    {
      "anonymous": false,
      "inputs": [
        {
          "indexed": true,
          "internalType": "address",
          "name": "from",
          "type": "address"
        },
        {
          "indexed": true,
          "internalType": "address",
          "name": "to",
          "type": "address"
        },
        {
          "indexed": true,
          "internalType": "uint256",
          "name": "tokenId",
          "type": "uint256"
        }
      ],
      "name": "Transfer",
      "type": "event"
    },
    {
      "inputs": [
        {
          "internalType": "address",
          "name": "to",
          "type": "address"
        },
        {
          "internalType": "uint256",
          "name": "tokenId",
          "type": "uint256"
        }
      ],
      "name": "approve",
      "outputs": [],
      "stateMutability": "nonpayable",
      "type": "function"
    },
    {
      "inputs": [
        {
          "internalType": "address",
          "name": "owner",
          "type": "address"
        }
      ],
      "name": "balanceOf",
      "outputs": [
        {
          "internalType": "uint256",
          "name": "",
          "type": "uint256"
        }
      ],
      "stateMutability": "view",
      "type": "function"
    },
    {
      "inputs": [
        {
          "internalType": "uint256",
          "name": "tokenId",
          "type": "uint256"
        }
      ],
      "name": "getApproved",
      "outputs": [
        {
          "internalType": "address",
          "name": "",
          "type": "address"
        }
      ],
      "stateMutability": "view",
      "type": "function"
    },
    {
      "inputs": [],
      "name": "getCurrentTokenId",
      "outputs": [
        {
          "internalType": "uint256",
          "name": "",
          "type": "uint256"
        }
      ],
      "stateMutability": "view",
      "type": "function"
    },
    {
      "inputs": [
        {
          "internalType": "address",
          "name": "owner",
          "type": "address"
        },
        {
          "internalType": "address",
          "name": "operator",
          "type": "address"
        }
      ],
      "name": "isApprovedForAll",
      "outputs": [
        {
          "internalType": "bool",
          "name": "",
          "type": "bool"
        }
      ],
      "stateMutability": "view",
      "type": "function"
    },
    {
      "inputs": [
        {
          "internalType": "address",
          "name": "to",
          "type": "address"
        },
        {
          "internalType": "string",
          "name": "uri",
          "type": "string"
        }
      ],
      "name": "mintComposite",
      "outputs": [
        {
          "internalType": "uint256",
          "name": "",
          "type": "uint256"
        }
      ],
      "stateMutability": "nonpayable",
      "type": "function"
    },
    {
      "inputs": [
        {
          "internalType": "address",
          "name": "to",
          "type": "address"
        },
        {
          "internalType": "string",
          "name": "uri",
          "type": "string"
        }
      ],
      "name": "mintStamp",
      "outputs": [
        {
          "internalType": "uint256",
          "name": "",
          "type": "uint256"
        }
      ],
      "stateMutability": "nonpayable",
      "type": "function"
    },
    {
      "inputs": [],
      "name": "name",
      "outputs": [
        {
          "internalType": "string",
          "name": "",
          "type": "string"
        }
      ],
      "stateMutability": "view",
      "type": "function"
    },
    {
      "inputs": [],
      "name": "owner",
      "outputs": [
        {
          "internalType": "address",
          "name": "",
          "type": "address"
        }
      ],
      "stateMutability": "view",
      "type": "function"
    },
    {
      "inputs": [
        {
          "internalType": "uint256",
          "name": "tokenId",
          "type": "uint256"
        }
      ],
      "name": "ownerOf",
      "outputs": [
        {
          "internalType": "address",
          "name": "",
          "type": "address"
        }
      ],
      "stateMutability": "view",
      "type": "function"
    },
    {
      "inputs": [],
      "name": "renounceOwnership",
      "outputs": [],
      "stateMutability": "nonpayable",
      "type": "function"
    },
    {
      "inputs": [
        {
          "internalType": "address",
          "name": "from",
          "type": "address"
        },
        {
          "internalType": "address",
          "name": "to",
          "type": "address"
        },
        {
          "internalType": "uint256",
          "name": "tokenId",
          "type": "uint256"
        }
      ],
      "name": "safeTransferFrom",
      "outputs": [],
      "stateMutability": "nonpayable",
      "type": "function"
    },
    {
      "inputs": [
        {
          "internalType": "address",
          "name": "from",
          "type": "address"
        },
        {
          "internalType": "address",
          "name": "to",
          "type": "address"
        },
        {
          "internalType": "uint256",
          "name": "tokenId",
          "type": "uint256"
        },
        {
          "internalType": "bytes",
          "name": "data",
          "type": "bytes"
        }
      ],
      "name": "safeTransferFrom",
      "outputs": [],
      "stateMutability": "nonpayable",
      "type": "function"
    },
    {
      "inputs": [
        {
          "internalType": "address",
          "name": "operator",
          "type": "address"
        },
        {
          "internalType": "bool",
          "name": "approved",
          "type": "bool"
        }
      ],
      "name": "setApprovalForAll",
      "outputs": [],
      "stateMutability": "nonpayable",
      "type": "function"
    },
    {
      "inputs": [
        {
          "internalType": "bytes4",
          "name": "interfaceId",
          "type": "bytes4"
        }
      ],
      "name": "supportsInterface",
      "outputs": [
        {
          "internalType": "bool",
          "name": "",
          "type": "bool"
        }
      ],
      "stateMutability": "view",
      "type": "function"
    },
    {
      "inputs": [],
      "name": "symbol",
      "outputs": [
        {
          "internalType": "string",
          "name": "",
          "type": "string"
        }
      ],
      "stateMutability": "view",
      "type": "function"
    },
    {
      "inputs": [
        {
          "internalType": "uint256",
          "name": "tokenId",
          "type": "uint256"
        }
      ],
      "name": "tokenURI",
      "outputs": [
        {
          "internalType": "string",
          "name": "",
          "type": "string"
        }
      ],
      "stateMutability": "view",
      "type": "function"
    },
    {
      "inputs": [
        {
          "internalType": "address",
          "name": "from",
          "type": "address"
        },
        {
          "internalType": "address",
          "name": "to",
          "type": "address"
        },
        {
          "internalType": "uint256",
          "name": "tokenId",
          "type": "uint256"
        }
      ],
      "name": "transferFrom",
      "outputs": [],
      "stateMutability": "nonpayable",
      "type": "function"
    },
    {
      "inputs": [
        {
          "internalType": "address",
          "name": "newOwner",
          "type": "address"
        }
      ],
      "name": "transferOwnership",
      "outputs": [],
      "stateMutability": "nonpayable",
      "type": "function"
    }
  ],
  "bytecode": "0x608060405234801562000010575f80fd5b50336040518060400160405280600f81526020016e4e4654205374616d702052616c6c7960881b8152506040518060400160405280600581526020016405354414d560dc1b815250815f9081620000689190620001af565b506001620000778282620001af565b5050506001600160a01b038116620000a857604051631e4fbdf760e01b81525f600482015260240160405180910390fd5b620000b381620000be565b505f60085562000277565b600780546001600160a01b038381166001600160a01b0319831681179093556040519116919082907f8be0079c531659141344cd1fd0a4f28419497f9722a3daafe3b4186f6b6457e0905f90a35050565b634e487b7160e01b5f52604160045260245ffd5b600181811c908216806200013857607f821691505b6020821081036200015757634e487b7160e01b5f52602260045260245ffd5b50919050565b601f821115620001aa575f81815260208120601f850160051c81016020861015620001855750805b601f850160051c820191505b81811015620001a65782815560010162000191565b5050505b505050565b81516001600160401b03811115620001cb57620001cb6200010f565b620001e381620001dc845462000123565b846200015d565b602080601f83116001811462000219575f8415620002015750858301515b5f19600386901b1c1916600185901b178555620001a6565b5f85815260208120601f198616915b82811015620002495788860151825594840194600190910190840162000228565b50858210156200026757878501515f19600388901b60f8161c191681555b5050505050600190811b01905550565b6114ae80620002855f395ff3fe608060405234801561000f575f80fd5b506004361061011c575f3560e01c806370a08231116100a9578063b88d4fde1161006e578063b88d4fde14610246578063c87b56dd14610259578063cfd71cf41461026c578063e985e9c51461027f578063f2fde38b14610292575f80fd5b806370a08231146101ff578063715018a6146102125780638da5cb5b1461021a57806395d89b411461022b578063a22cb46514610233575f80fd5b8063095ea7b3116100ef578063095ea7b3146101a957806323b872dd146101be57806342842e0e146101d157806356189236146101e45780636352211e146101ec575f80fd5b806301ffc9a71461012057806302343f281461014857806306fdde0314610169578063081812fc1461017e575b5f80fd5b61013361012e366004610faa565b6102a5565b60405190151581526020015b60405180910390f35b61015b610156366004611067565b6102b5565b60405190815260200161013f565b610171610332565b60405161013f9190611112565b61019161018c366004611124565b6103c1565b6040516001600160a01b03909116815260200161013f565b6101bc6101b736600461113b565b6103e8565b005b6101bc6101cc366004611163565b6103f7565b6101bc6101df366004611163565b610485565b60085461015b565b6101916101fa366004611124565b6104a4565b61015b61020d36600461119c565b6104ae565b6101bc6104f3565b6007546001600160a01b0316610191565b610171610506565b6101bc6102413660046111b5565b610515565b6101bc6102543660046111ee565b610520565b610171610267366004611124565b610538565b61015b61027a366004611067565b610543565b61013361028d366004611265565b6105b1565b6101bc6102a036600461119c565b6105de565b5f6102af8261061b565b92915050565b5f6102be61063f565b60088054905f6102cd83611296565b90915550506008546102df848261066c565b6102e98184610685565b80846001600160a01b03167fa0798e1b0f3d36bb7510edb51192ef46c0f72b166d8a9f0ba260c9314a2fc3ec856040516103239190611112565b60405180910390a39392505050565b60605f8054610340906112ba565b80601f016020809104026020016040519081016040528092919081815260200182805461036c906112ba565b80156103b75780601f1061038e576101008083540402835291602001916103b7565b820191905f5260205f20905b81548152906001019060200180831161039a57829003601f168201915b5050505050905090565b5f6103cb826106d4565b505f828152600460205260409020546001600160a01b03166102af565b6103f382823361070c565b5050565b6001600160a01b03821661042557604051633250574960e11b81525f60048201526024015b60405180910390fd5b5f610431838333610719565b9050836001600160a01b0316816001600160a01b03161461047f576040516364283d7b60e01b81526001600160a01b038086166004830152602482018490528216604482015260640161041c565b50505050565b61049f83838360405180602001604052805f815250610520565b505050565b5f6102af826106d4565b5f6001600160a01b0382166104d8576040516322718ad960e21b81525f600482015260240161041c565b506001600160a01b03165f9081526003602052604090205490565b6104fb61063f565b6105045f61080b565b565b606060018054610340906112ba565b6103f333838361085c565b61052b8484846103f7565b61047f33858585856108fa565b60606102af82610a22565b5f61054c61063f565b60088054905f61055b83611296565b909155505060085461056d848261066c565b6105778184610685565b80846001600160a01b03167f2b0fc4d1cee768fbfa293754554dff98baff8efefb91d0ec362656a37a6d65f1856040516103239190611112565b6001600160a01b039182165f90815260056020908152604080832093909416825291909152205460ff1690565b6105e661063f565b6001600160a01b03811661060f57604051631e4fbdf760e01b81525f600482015260240161041c565b6106188161080b565b50565b5f6001600160e01b03198216632483248360e11b14806102af57506102af82610b2d565b6007546001600160a01b031633146105045760405163118cdaa760e01b815233600482015260240161041c565b6103f3828260405180602001604052805f815250610b7c565b5f82815260066020526040902061069c8282611337565b506040518281527ff8e1a15aba9398e019f0b49df1a4fde98ee17ae345cb5f6b5e2c27f5033e8ce79060200160405180910390a15050565b5f818152600260205260408120546001600160a01b0316806102af57604051637e27328960e01b81526004810184905260240161041c565b61049f8383836001610b93565b5f828152600260205260408120546001600160a01b039081169083161561074557610745818486610c97565b6001600160a01b0381161561077f576107605f855f80610b93565b6001600160a01b0381165f90815260036020526040902080545f190190555b6001600160a01b038516156107ad576001600160a01b0385165f908152600360205260409020805460010190555b5f8481526002602052604080822080546001600160a01b0319166001600160a01b0389811691821790925591518793918516917fddf252ad1be2c89b69c2b068fc378daa952ba7f163c4a11628f55a4df523b3ef91a4949350505050565b600780546001600160a01b038381166001600160a01b0319831681179093556040519116919082907f8be0079c531659141344cd1fd0a4f28419497f9722a3daafe3b4186f6b6457e0905f90a35050565b6001600160a01b03821661088e57604051630b61174360e31b81526001600160a01b038316600482015260240161041c565b6001600160a01b038381165f81815260056020908152604080832094871680845294825291829020805460ff191686151590811790915591519182527f17307eab39ab6107e8899845ad3d59bd9653f200f220920489ca2b5937696c31910160405180910390a3505050565b6001600160a01b0383163b15610a1b57604051630a85bd0160e11b81526001600160a01b0384169063150b7a029061093c9088908890879087906004016113f3565b6020604051808303815f875af1925050508015610976575060408051601f3d908101601f191682019092526109739181019061142f565b60015b6109dd573d8080156109a3576040519150601f19603f3d011682016040523d82523d5f602084013e6109a8565b606091505b5080515f036109d557604051633250574960e11b81526001600160a01b038516600482015260240161041c565b805160208201fd5b6001600160e01b03198116630a85bd0160e11b14610a1957604051633250574960e11b81526001600160a01b038516600482015260240161041c565b505b5050505050565b6060610a2d826106d4565b505f8281526006602052604081208054610a46906112ba565b80601f0160208091040260200160405190810160405280929190818152602001828054610a72906112ba565b8015610abd5780601f10610a9457610100808354040283529160200191610abd565b820191905f5260205f20905b815481529060010190602001808311610aa057829003601f168201915b505050505090505f610ad960408051602081019091525f815290565b905080515f03610aea575092915050565b815115610b1c578082604051602001610b0492919061144a565b60405160208183030381529060405292505050919050565b610b2584610cfb565b949350505050565b5f6001600160e01b031982166380ac58cd60e01b1480610b5d57506001600160e01b03198216635b5e139f60e01b145b806102af57506301ffc9a760e01b6001600160e01b03198316146102af565b610b868383610d6c565b61049f335f8585856108fa565b8080610ba757506001600160a01b03821615155b15610c68575f610bb6846106d4565b90506001600160a01b03831615801590610be25750826001600160a01b0316816001600160a01b031614155b8015610bf55750610bf381846105b1565b155b15610c1e5760405163a9fbf51f60e01b81526001600160a01b038416600482015260240161041c565b8115610c665783856001600160a01b0316826001600160a01b03167f8c5be1e5ebec7d5bd14f71427d1e84f3dd0314c0f7b2291e5b200ac8c7c3b92560405160405180910390a45b505b50505f90815260046020526040902080546001600160a01b0319166001600160a01b0392909216919091179055565b610ca2838383610dcd565b61049f576001600160a01b038316610cd057604051637e27328960e01b81526004810182905260240161041c565b60405163177e802f60e01b81526001600160a01b03831660048201526024810182905260440161041c565b6060610d06826106d4565b505f610d1c60408051602081019091525f815290565b90505f815111610d3a5760405180602001604052805f815250610d65565b80610d4484610e2e565b604051602001610d5592919061144a565b6040516020818303038152906040525b9392505050565b6001600160a01b038216610d9557604051633250574960e11b81525f600482015260240161041c565b5f610da183835f610719565b90506001600160a01b0381161561049f576040516339e3563760e11b81525f600482015260240161041c565b5f6001600160a01b03831615801590610b255750826001600160a01b0316846001600160a01b03161480610e065750610e0684846105b1565b80610b255750505f908152600460205260409020546001600160a01b03908116911614919050565b60605f610e3a83610ebe565b60010190505f8167ffffffffffffffff811115610e5957610e59610fe0565b6040519080825280601f01601f191660200182016040528015610e83576020820181803683370190505b5090508181016020015b5f19016f181899199a1a9b1b9c1cb0b131b232b360811b600a86061a8153600a8504945084610e8d57509392505050565b5f8072184f03e93ff9f4daa797ed6e38ed64bf6a1f0160401b8310610efc5772184f03e93ff9f4daa797ed6e38ed64bf6a1f0160401b830492506040015b6d04ee2d6d415b85acef81000000008310610f28576d04ee2d6d415b85acef8100000000830492506020015b662386f26fc100008310610f4657662386f26fc10000830492506010015b6305f5e1008310610f5e576305f5e100830492506008015b6127108310610f7257612710830492506004015b60648310610f84576064830492506002015b600a83106102af5760010192915050565b6001600160e01b031981168114610618575f80fd5b5f60208284031215610fba575f80fd5b8135610d6581610f95565b80356001600160a01b0381168114610fdb575f80fd5b919050565b634e487b7160e01b5f52604160045260245ffd5b5f67ffffffffffffffff8084111561100e5761100e610fe0565b604051601f8501601f19908116603f0116810190828211818310171561103657611036610fe0565b8160405280935085815286868601111561104e575f80fd5b858560208301375f602087830101525050509392505050565b5f8060408385031215611078575f80fd5b61108183610fc5565b9150602083013567ffffffffffffffff81111561109c575f80fd5b8301601f810185136110ac575f80fd5b6110bb85823560208401610ff4565b9150509250929050565b5f5b838110156110df5781810151838201526020016110c7565b50505f910152565b5f81518084526110fe8160208601602086016110c5565b601f01601f19169290920160200192915050565b602081525f610d6560208301846110e7565b5f60208284031215611134575f80fd5b5035919050565b5f806040838503121561114c575f80fd5b61115583610fc5565b946020939093013593505050565b5f805f60608486031215611175575f80fd5b61117e84610fc5565b925061118c60208501610fc5565b9150604084013590509250925092565b5f602082840312156111ac575f80fd5b610d6582610fc5565b5f80604083850312156111c6575f80fd5b6111cf83610fc5565b9150602083013580151581146111e3575f80fd5b809150509250929050565b5f805f8060808587031215611201575f80fd5b61120a85610fc5565b935061121860208601610fc5565b925060408501359150606085013567ffffffffffffffff81111561123a575f80fd5b8501601f8101871361124a575f80fd5b61125987823560208401610ff4565b91505092959194509250565b5f8060408385031215611276575f80fd5b61127f83610fc5565b915061128d60208401610fc5565b90509250929050565b5f600182016112b357634e487b7160e01b5f52601160045260245ffd5b5060010190565b600181811c908216806112ce57607f821691505b6020821081036112ec57634e487b7160e01b5f52602260045260245ffd5b50919050565b601f82111561049f575f81815260208120601f850160051c810160208610156113185750805b601f850160051c820191505b81811015610a1957828155600101611324565b815167ffffffffffffffff81111561135157611351610fe0565b6113658161135f84546112ba565b846112f2565b602080601f831160018114611398575f84156113815750858301515b5f19600386901b1c1916600185901b178555610a19565b5f85815260208120601f198616915b828110156113c6578886015182559484019460019091019084016113a7565b50858210156113e357878501515f19600388901b60f8161c191681555b5050505050600190811b01905550565b6001600160a01b03858116825284166020820152604081018390526080606082018190525f90611425908301846110e7565b9695505050505050565b5f6020828403121561143f575f80fd5b8151610d6581610f95565b5f835161145b8184602088016110c5565b83519083019061146f8183602088016110c5565b0194935050505056fea26469706673582212203fac904d6d391aefe74323cf9dbf9961108d6befbf472760f499175be994e1d764736f6c63430008140033",
  "linkReferences": {},
  "deployedLinkReferences": {},
  "immutableReferences": {},
  "inputSourceName": "project/contracts/StampNFT.sol",
  "buildInfoId": "solc-0_8_20-ba4af9fa4eed1eef8d43b636b103f78af1138702"
}